:020000040000FA
:06000000020B440202376E
:03002B0002093E89
:030033000204962E
:0300530002016C3B
:03006B0002044E3E
:03007B0002047606
:100083000201CB010020FD00020000DC0E00000095
:10009300000000780F0000360F0000C40E000000BF
:1000A300000000000000000000000000000000004D
:1000B300000000000006FFFF01AC1600000001FF76
:1000C30060EA00009813A4130000AA13B013000001
:1000D3000000B613000000000100000000202020F3
:1000E3002020202020202020202020202001010467
:1000F30001000100000000000000010101040040B4
:1001030017000000E8030000FFFF0C18E8030000DD
:1001130064006400B801A0BB0D00A0BB0D00020287
:1001230000F8FF070502070401051E02051E020A67
:100133000A0102080803B80B02803E0102FEFFE831
:10014300030A050001FFFF010A1401E00101050391
:100153000101FF0F10FEFF1E2C00000000F22A0019
:10016300000000FF000000FF00C0E074F11204B6BD
:10017300A2AFE433F509D2AF85A708AFA1EF5508C5
:10018300FE74105E6006120C5A75A1EF74085E606F
:1001930008120C6075A1F78024EFA2E092F0E50845
:1001A300A2E082F05017906198E0F890037AE0C3E0
:1001B30098A2D265D0335002E8F075A1FEE509A2FA
:1001C300E092AF7F02020515C0E074F21204B6A2FA
:1001D300AFE433FED2AF9061A4E0F8759B00E591E4
:1001E30058540860087591F7120CA88023E59158BC
:1001F300541060087591EF120CAE8014E591A2E0E3
:1002030092F0E8A2E082F05007E0C2E0F0120DF8AD
:100213009061A3E0F8E5E9585404600E120DCE7521
:10022300E9FB906193E0A2E640F2EEA2E092AF7F99
:1002330001020515C0E074F21204B6A2AFE433FE66
:10024300D2AF9061A5E0F8E5BF585404600675BFCE
:10025300FB120E1080D4C3E498F8E499F912029AC1
:100263008026C3E49AFAE49BFBE920E7E912029AA9
:10027300E498F8E499F922C3E498F8E499F91202AE
:100283009AE498F8E499F9C3E49AFAE49BFB22EB25
:1002930020E7CFE920E7E0B90010BB0008E88AF0C7
:1002A30084F8AAF022E4FBC8FA22EB70227B10C880
:1002B30033C8C933C9335007C39AC3DBF280069AE4
:1002C30050012ADBEAC833F4C8C933F4C9FA2275EA
:1002D300F008E4C833C8C933C933C99AC99B500469
:1002E300C92AC93BD5F0ECFBC833F4C8E4C9FA22E8
:1002F300080808EAC0E0EBC0E086F0E7A4FA1809B2
:1003030086F0E7A42AFA180986F0E7A42AFA18095E
:1003130086F0E7A42AFA1986F0E7A4FBE5F02AFAA7
:10032300190886F0E7A42BFBE5F03AFA190886F0E2
:10033300E7A42BFBE5F03AFA18180986F0E7A4C501
:10034300F02BFBE43AFA1908E7C5F0C6A426F6E554
:10035300F03BFBE43AFA1886F0E7A4F6E5F008264A
:10036300F6E43B08F6E43A08F6D0E0FBD0E0FA22E4
:10037300E4CFC0E0E4CEC0E0E4CDC0E0E4CCC0E034
:1003830075F020E626F608E633F608E633F608E6C7
:1003930033F6181818EC33FCED33FDEE33FEEF3370
:1003A300FFC3EC9709ED9709EE9709EF9719191910
:1003B300400FFFEC97FC09ED97FD09EE97FE191925
:1003C30006D5F0BFECF709EDF709EEF709EFF719DA
:1003D3001919D0E0FCD0E0FDD0E0FED0E0FF2225EB
:1003E30018C582C0E0E51934FFC583C0E0E518C332
:1003F300958224F810AF08858319858218800885B3
:100403008319858218D2AFCEF0A3E520F0A3780834
:10041300E608F0A3DEFAEFF0A3E58124FAF8E60894
:10042300F0A3E608F0A3E608F0A30808E608F0A3A3
:10043300E608F0A315811581D0E0FED0E0F8158120
:1004430015811581E8C0E0EEC0E022C0E074F2122D
:1004530004B6A2AFE433FED2AF90033CE05589600B
:1004630003122640758900C2C5EEA2E092AF7F0158
:10047300020515C0E074F21204B6A2AFE433FED253
:10048300AF90033DE0558A6003122640758A00C28F
:10049300EB80D6C0E074F21204B6A2AFE433FED20E
:1004A300AF90033EE0558B6003122640758B00C26C
:1004B300E880B6C0D02518C582C0E0E51934FFC571
:1004C30083C0E0E518C3958224F310AF0885831930
:1004D3008582188008858319858218D2AFC8F0A356
:1004E300E9F0A3EAF0A3EBF0A37908E709F0A3D8B6
:1004F300FAECF0A3EDF0A3EEF0A3EFF0A3D0E0F05D
:10050300A3D0E0F0A3D0E0F0A3E520F0A3E5F0F062
:10051300A322851983851882E0C0E0A3E0F9A3E054
:10052300FAA3E0FBA37808E0F608A3DFFAE0FCA354
:10053300E0FDA3E0FEA3E0FFA3E0C0E0A3E0C0E092
:10054300A3E0F5D0A3E0F520A3E0A3F5F010AF08F6
:100553008583198582188008858319858218D2AF0F
:10056300D082D083D0E0F8D0E032120BD6B90003AA
:100573000205ACE490030178D879188002F0A3D87F
:10058300FCD9FA7AD87B1A90008678E7790180152E
:10059300E493A3AD82AE838A828B83F0A3AA82AB5A
:1005A300838D828E83D8E9D9E77582FC7583F774CE
:1005B300051208B575820C75832774001208B5E41B
:1005C3007375F0108E1A8F1B85821F85831E851805
:1005D30082851983E0CEA3E0CF851F82851E83EB3E
:1005E300C9EAC8EDCBECCAC3E833C8E933C9EA3377
:1005F300CAEB33CBC3EA9EF51DEB9FF51CB3500446
:10060300AB1CAA1DEC33CCED33CDD5F0DAAE1AAF6B
:100613001B22D083D082ECC0E0EDC0E0E493A3FCC6
:10062300E493A3FDED4C600D1206EDEC24FFFCED0D
:1006330034FFFD80EFE493A3FCE493A3FDED4C6052
:100643000D1207C0EC24FFFCED34FFFD80EFD0E07A
:10065300FDD0E0FCE493A3C0E0E493C0E022D083A8
:10066300D082E9C0E0E493A3C386F0C5F095F0F926
:1006730008E493A386F0C5F095F0700BE493A3C34D
:10068300994005E9048002A3E475F002A42582F5EC
:1006930082E5F03583F583D0E0F9E493A3C0E0E489
:1006A30093C0E022851983851882E0A3FEE0A3F5B9
:1006B300207808E0A3F608DFFAE0A3FFE0A3C0E098
:1006C300E0A3C0E0E0A3C0E0E0A3C0E0E0A3C0E09B
:1006D30010AF088582188583198008858218858361
:1006E30019D2AFD083D0820208BBC0E0C3E4939693
:1006F300087401939618400FE49366700808740118
:1007030093661870007019A3A3C3E4939608740149
:10071300939618A3A3400DD0E0D0E0D0E002065199
:10072300A3A3A3A3A3A3D0E022D083D082C5F0E4E4
:1007330093A3C5F0C395F0F5F0E493A3C395F040FC
:1007430005E5F0048001E475F002A42582F582E555
:10075300F03583F583E493A3C0E0E493C0E022740F
:1007630004800474028000CCC0E0EDC0E0E518C34F
:100773009CCCAD1950011D10AF068C188D19800645
:100783008C188D19D2AF120837D0E0FDD0E0FC22CF
:1007930074028000CCC0E0EDC0E0E518C39CCCAD92
:1007A3001950011D10AF068C188D1980068C188DF9
:1007B30019D2AF120815D0E0FDD0E0FC22C0E0C092
:1007C300F088F0E49366700808740193661870006B
:1007D300A8F0A3A3700BD0F0D0E0D0E0D0E00206E5
:1007E30051A3A3D0F0D0E022D083D082CCC0E0E4E8
:1007F30093A360061208771470FAE493A3600612B9
:1008030009B71470FAD0E0FCE493A3C0E0E493C00A
:10081300E022CAC0E0E493A3C582CCC582C583CDE0
:10082300C583F0A3C582CCC582C583CDC583DAE574
:10083300D0E0CA22CAC0E0E0A3C582CCC582C5838A
:10084300CDC583F0A3C582CCC582C583CDC583DA6C
:10085300E6D0E0CA22C008C3E096F50808A3E096F4
:10086300420808A3E096420808A3E09645087001F1
:10087300D3D00822C0E0E493A3D39C5010E493A305
:10088300C39C400AD0E0D0E0D0E0020808A3A3A3B1
:10089300D0E0227009080808226016181818C6C389
:1008A30033C608C633C608C633C608C633C6D5E042
:1008B300EA22C09FF59FE473D09F22D083D082C0E9
:1008C3009FE493C0E0740193C0E0740293F59F2208
:1008D3007404800A74038006740280027401C0E009
:1008E300F4041208EED0E0120B81222518F58210D1
:1008F300AF08F518400C15198008F51840021519B2
:10090300D2AF8519832200C0D0251810AF08F5187F
:10091300500C05198008F51850020519D2AFD0D034
:1009230022BB0102E722C082C08389828A83BB0083
:1009330003E08002E493D083D08222C0E0C0D0E8F9
:10094300C0E0A8A8D2AFC2C7E8A2E792AFD0E0F850
:10095300D0D0D0E0326016080808C6C313C618C644
:1009630013C618C613C618C613C6D5E0EA22C3E0D9
:10097300C696F608A3E0C696F608A3E0C696F60860
:10098300A3E0C696F6222518F8E43519F9222518AE
:10099300FAE43519FB222518FCE43519FD22251844
:1009A30010AF08F518400C15198008F5184002150A
:1009B30019D2AF22C0E0E493A36C7009D0E0D0E079
:1009C300D0E0020808A3A3D0E022E066701008A3D9
:1009D300E066700A08A3E066700408A3E06622C319
:1009E300E09608A3E09608A3E09608A3E096A2D2B7
:1009F30065D03322E76670100809E766700A0809B4
:100A0300E76670040809E76622C3E096F008A3E0EE
:100A130096F008A3E096F008A3E096F022C3E697C9
:100A2300F60809E697F60809E697F60809E697F641
:100A330022C3E4939608740193960874029396086C
:100A43007403939622E627F60809E637F60809E6C3
:100A530037F60809E637F622E026F608A3E036F66D
:100A630008A3E036F608A3E036F622700422600DF0
:100A730018C6C333C608C633C6D5E0F41822E493B8
:100A8300F608740193F608740293F608740393F658
:100A930022E657F60809E657F60809E657F6080965
:100AA300E657F622E056F608A3E056F608A3E0560A
:100AB300F608A3E056F622E647F60809E647F608E5
:100AC30009E647F60809E647F622E026F008A3E020
:100AD30036F008A3E036F008A3E036F022E056F043
:100AE30008A3E056F008A3E056F008A3E056F0226E
:100AF300E4C396F608E496F608E496F608E496F658
:100B030022600D08C6A2E713C618C613C6D5E0F3C4
:100B130022C6F4C608C6F4C608C6F4C608C6F4C698
:100B230022C3E7960809E7960809E7960809E796B6
:100B330022C3E09608A3E09608A3E09608A3E096F4
:100B43002275D00075813F751801751903000205E0
:100B53006DE6F008A3E6F008A3E6F008A3E6F022AA
:100B6300600C08C6C313C618C613C6D5E0F422E04A
:100B7300F608A3E0F608A3E0F608A3E0F622CAC04D
:100B8300E0E6F0A308DAFAD0E0FA22E8F0A3E9F00D
:100B9300A3EAF0A3EBF022E0F8A3E0F9A3E0FAA3C1
:100BA300E0FB22ECF0A3EDF0A3EEF0A3EFF022E0E4
:100BB300FCA3E0FDA3E0FEA3E0FF22EAF0A3EBF039
:100BC300A3ECF0A3EDF022E0FAA3E0FBA3E0FCA387
:100BD300E0FD22E5C754F84401F5C7790122251841
:100BE300F582E43519F58322C2AF75D69F02000062
:100BF300221208BEB3BC051208BEDFBC051208BE34
:100C030076BF051208BEB6BF051208BEF2BF0512B5
:100C130008BE06C0051208BE1FC0051208BE10C1DB
:100C2300051208BEC2C1051208BED6C1051208BE10
:100C330001FD051208BE25FD051208BE3EFD051285
:100C430008BE7CFD051208BEACFD051208BED9FD29
:100C5300051208BE3FFE051208BE42FE051208BE7D
:100C63004CFE051208BE59FE051208BE15F1051209
:100C730008BE35F1051208BE74F1051208BE92F1E3
:100C8300051208BEADF1051208BE13F2051208BE27
:100C93001FF2051208BE7CF2051208BEA0F205126F
:100CA30008BE61F3051208BE6EF3051208BE7FF39A
:100CB300051208BEA088061208BEB888061208BE30
:100CC300E488061208BE49CC051208BEA3CD05125E
:100CD30008BEB1CD051208BEC4CD051208BED9CDDC
:100CE300051208BEEECD051208BE01CE051208BEE0
:100CF3007DCE051208BEE2CE051208BE78CF0512DE
:100D030008BE51D0051208BE61D0051208BE70D0CE
:100D1300051208BE7787061208BE9B87061208BE17
:100D2300C387061208BEEB87061208BED7F5051265
:100D330008BEFEF5051208BE1CF6051208BE8BF6AA
:100D4300051208BE12FD011208BE2BFD011208BEDA
:100D530037FD011208BE4BFD011208BE69FD0112E9
:100D630008BE73FD011208BE7DFD011208BE90FD91
:100D7300011208BE16FE011208BE8BFE011208BE48
:100D8300BAFE011208BE08FF011208BE57FF011286
:100D930008BE72FF011208BE7CFF011208BE8DFF60
:100DA300011208BED0FF011208BEAB89061208BEAD
:100DB3002CB3051208BE58B3051208BE75B305124D
:100DC30008BE88B3051208BEA3B3051208BEFDB35F
:100DD300051208BE2BB4051208BE3BB8051208BEA7
:100DE30099B9051208BECBB9051208BE2EBA051271
:100DF30008BEA4BB051208BECCBB051208BEE1BBEE
:100E0300051208BEF1BB051208BE31BC051208BEAF
:100E130073BC051208BE83BC051208BE45810612C9
:100E230008BE5F81061208BE8781061208BEA08134
:100E3300061208BEC481061208BEE281061208BE6D
:100E4300F981061208BE2782061208BE42820612E4
:100E530008BEF689061208BE1AE8051208BE2AE87B
:100E6300051208BE31E9051208BE65E9051208BE80
:100E730087E9051208BEAAE9051208BEC8E90512EA
:100E830008BE02EA051208BE67EA051208BEA9EA0F
:100E9300051208BEF0EA051208BE1DEB051208BED6
:100EA30054EB051208BE0080061208BE1E8006120F
:100EB30008BE8080061208BE1A81061208BE0EFF05
:100EC300021208BEA483061208BEEC83061208BEF3
:100ED30063FE051208BE88FF051208BEEB9D0512CE
:100EE30008BED7A1051208BECCA3051208BEFEA4F6
:100EF300051208BED7A5051208BE6EA7051208BEC7
:100F03003AA8051208BE8EA8051208BEDCF9051220
:100F130008BEFDF9051208BE37FB051208BE61FBCA
:100F2300051208BEC3FF031208BED3FF031208BE97
:100F3300DDFF031208BE3CEF011208BECFF301121E
:100F430008BE31F5011208BE08F7011208BE91F779
:100F5300011208BE28F8011208BEE7F8011208BE04
:100F6300DBF9011208BEF3FA011208BE22FC0112DA
:100F730008BE9AE6041208BE9DE6041208BE29EED6
:100F8300041208BE7BEF041208BEDCF0041208BE94
:100F9300B3F1041208BE8CF2041208BE75F30412F6
:100FA30008BE69F4041208BE21F5041208BE51F507
:100FB300041208BE01F7041208BE9EFB051208BE08
:100FC300BEFB051208BED1FC051208BED4FC0512F7
:100FD30008BEC286061208BEF886061208BE14872B
:100FE300061208BE5687061208BE6687061208BE9A
:100FF300EFF7041208BE29F8041208BE92F804128F
:1010030008BEB1F8041208BECAF8041208BE6CF98F
:10101300041208BE75F9041208BEC6F9041208BE0C
:10102300EFF9041208BEFCF9041208BE6DFA0412AB
:1010330008BEFBFA041208BE49FB041208BE7FFB7C
:10104300041208BEE0FB041208BE09FC041208BE29
:1010530080FC041208BEDCFC041208BE19FD041255
:1010630008BE50FD041208BE62FD041208BE74FDE2
:10107300041208BE93FD041208BE9CFD041208BEB0
:1010830057FE041208BEA3FE041208BEE1FE0412BA
:1010930008BE12C7051208BE52C8051208BE75C89D
:1010A300051208BE86C8051208BEA5CA051208BEE9
:1010B300C5CA051208BE957D001208BECB7D00127D
:1010C30008BE137E001208BE6C7F001208BE25897D
:1010D300061208BE5B69001208BE8C6A001208BEC5
:1010E300C86A001208BE826C001208BEAC6C001203
:1010F30008BE256F001208BE656F001208BEF970A6
:10110300001208BE9871001208BEF071001208BEEA
:101113008372001208BEBD72001208BEFF72001275
:1011230008BE7274001208BEF275001208BE2F7852
:10113300001208BE5D78001208BE8978001208BE4E
:101143009278001208BEE878001208BE787900127F
:1011530008BEB67C001208BE387D001208BEDBFF55
:10116300011208BEF1FF011208BE0FD5051208BE19
:1011730025D5051208BEC9D5051208BE08D6051225
:1011830008BE25D6051208BE56D6051208BEA3D63C
:10119300051208BED7D6051208BE12D7051208BE1F
:1011A30007D9051208BEC285061208BE218606129B
:1011B30008BE5F86061208BEA086061208BE00801F
:1011C300041208BE0C80041208BE6E80041208BE0E
:1011D3007880041208BE0581041208BE41810412FE
:1011E30008BEFD81041208BE0A82041208BE6E8284
:1011F300041208BEB782041208BE7583041208BE27
:10120300C283041208BE3D84041208BEFC85041286
:1012130008BE2F88041208BE9589041208BEF68AF8
:10122300041208BE828B041208BECE8C041208BEC0
:10123300D18D041208BE2B8F041208BEF59304123D
:1012430008BEEC94041208BE7095041208BE95956E
:10125300041208BEBA95041208BE5396041208BEBF
:101263007196041208BED796041208BEF3960412B0
:1012730008BE2397041208BE3598041208BE0899C5
:10128300041208BE859A041208BEA69A041208BE68
:10129300299B041208BECF9B041208BE169C04129D
:1012A30008BE8E9C041208BEEB9C041208BE769DF9
:1012B300041208BECE9E041208BE3EA0041208BE4D
:1012C300D0A0041208BE36A1041208BE47A304121C
:1012D30008BEECA4041208BE01A5041208BE39A579
:1012E300041208BEA6A5041208BEEAA5041208BE8D
:1012F3005BA6041208BE01A7041208BEEEA80412DE
:1013030008BEBDA9041208BECFAA041208BE7DAC54
:10131300041208BEDCE0051208BE4EE1051208BE49
:101323005CE1051208BE6DE2051208BEACEB0512C6
:1013330008BE3CEC051208BEEBEC051208BE3A8A67
:10134300061208BE61EE051208BE0080051208BE33
:101353003480051208BE7580051208BEA2800512EE
:1013630008BE4881051208BE4C83051208BEF684E8
:10137300051208BEE086051208BE2F87051208BEB7
:101383008D87051208BE3F88051208BE078905121E
:1013930008BEA789051208BEE489051208BE1F8A84
:1013A300051208BE388A051208BE528A051208BE05
:1013B300558A051208BEA78A051208BE298B051295
:1013C30008BE088C051208BE668D051208BE8B8DFB
:1013D300051208BEAC8E051208BEF78F051208BEB3
:1013E300DA90051208BE7582061208BECC82061278
:1013F30008BE3883061208BE70D6031208BECBD6C9
:10140300031208BE5BD7031208BED4D8031208BE6A
:10141300B4D9031208BEA2DA031208BEB9DA031262
:1014230008BE0BDB031208BE7FDB031208BECBDB57
:10143300031208BEDEDB031208BE37DC031208BE4C
:10144300A6DC031208BEBEDC031208BE86DF03124D
:1014530008BE1CE0031208BE53E0031208BE9CE062
:10146300031208BE9EE2031208BEEEE2031208BE98
:10147300C8E3031208BE01E4031208BE20E403120A
:1014830008BE6BE4031208BE8BE4031208BE42E5F8
:10149300031208BE12E6031208BE1DE6031208BEBD
:1014A30091E6031208BEECE6031208BE39E7031205
:1014B30008BE44E8031208BEE8EA031208BE1BEBA9
:1014C300031208BEBDEB031208BEE2EB031208BE13
:1014D30066EC031208BE43ED031208BE81ED03124E
:1014E30008BEE5ED031208BEA3EE031208BEA6EE86
:1014F300031208BEB0EE031208BEBAEE031208BE12
:10150300D6EE031208BE52EF031208BE8BEF03128E
:1015130008BEA7EF031208BED3EF031208BEFAEF0B
:10152300031208BE1EF0031208BE59F0031208BED0
:10153300CCF0031208BE00F1031208BE41F10312FE
:1015430008BE5BF1031208BE82F1031208BEB1F1BB
:10155300031208BED1F1031208BE0EF2031208BE35
:1015630045F2031208BE48F3031208BE80F40312C7
:1015730008BE9FF4031208BEB6F4031208BEC8F4F3
:10158300031208BEA8FF051208BEC0FF051208BE5D
:10159300EAC1051208BE28C2051208BEC1C205125F
:1015A30008BECCC3051208BE14C6051208BE91C6F8
:1015B300051208BEECF7021208BE3BF8021208BE81
:1015C300F9F9021208BEB3FB021208BEF1FB0212C4
:1015D30008BEE6FC021208BEF1FD021208BE13FEAD
:1015E300021208BE5DFE021208BEDEFE021208BE33
:1015F3002ED8021208BE51D8021208BE52D90212C6
:1016030008BE9BD9021208BEFBD9021208BE57DAE4
:10161300021208BEA8DA021208BE1EDB021208BEBE
:10162300A1DB021208BE16DC021208BE59DC02124C
:1016330008BE41E0021208BE9AE2021208BECDE2E1
:10164300021208BE23E3021208BE6DE6021208BEB0
:10165300F2E6021208BE7CE8021208BE85E9021215
:1016630008BEB5EA021208BE19EB021208BED9EB96
:10167300021208BE3DEC021208BE40EC021208BE84
:1016830015ED021208BE4DEE021208BE14F002124E
:1016930008BE2CF2021208BE2DF3021208BEBBF3E1
:1016A300021208BE13F5021208BE4BF6021208BE60
:1016B3008AF6021208BE3EF7021208BEA8AE041252
:1016C30008BE48AF041208BEB4AF041208BECFAFC1
:1016D300041208BE70B0041208BEB7B0041208BEEC
:1016E300DEB1041208BE21B2041208BE9DB2041278
:1016F30008BEF0B2041208BE4FB3041208BEFDB315
:10170300041208BEB8B6041208BEE2B7041208BE3B
:101713006BB8041208BE4EBA041208BEF2BA041221
:1017230008BE91BB041208BEF2BB041208BE61BC22
:10173300041208BEC5BD041208BEA4BE041208BE2E
:10174300DFBE041208BEFFBE041208BEB0BF0412FF
:1017530008BEEDBF041208BE76C0041208BE10C254
:10176300041208BED6C3041208BE59C5041208BE2B
:10177300CBC6041208BEDAC7041208BE67C8041237
:1017830008BED1C8041208BEE8C9041208BE3BCB88
:10179300041208BEA6CB041208BEEECB041208BE88
:1017A30032CC041208BE8DCC041208BEEACC04125B
:1017B30008BE25CD041208BEA9CD041208BE03CE6F
:1017C300041208BE72CF041208BEEACF041208BE88
:1017D30002D1041208BE2AD1041208BE36D2041262
:1017E30008BE47D2041208BE5FD2041208BE88D3D3
:1017F300041208BEABD3041208BE84D4041208BE7C
:10180300A8D4041208BEBFD4041208BEE3D4041241
:1018130008BE05D5041208BEDFD5041208BE39D6AA
:10182300041208BEB3D7041208BE0FD8041208BEB0
:1018330026D8041208BE54D8041208BEA6D904122E
:1018430008BE25DA041208BE5CDA041208BE96DA72
:10185300041208BE02DB041208BEC1DB041208BE78
:101863009FDD041208BE9FDE041208BEAADF041225
:1018730008BEBCE0041208BEE4E1041208BEF2E1B3
:10188300041208BEF7E2041208BE99E3041208BE6C
:10189300DFE3041208BEF4E3041208BEFCE40412FE
:1018A30008BE9DE5041208BEF9E5041208BE02DD78
:1018B300051208BEBDDE051208BE4185061208BE2C
:1018C300D1DF051208BE57E0051208BE14D9051270
:1018D30008BE32D9051208BE76D9051208BE9CD9B6
:1018E300051208BEC3D9051208BEDBD9051208BE0E
:1018F300F3D9051208BE0BDA051208BEADDA0512DC
:1019030008BEEFDA051208BE04DB051208BE26DCAA
:10191300051208BE2FDC051208BE38DC051208BE0E
:101923007E8A061208BE4BDC051208BEA1D0051242
:1019330008BE95D4051208BEA3D4051208BEA8D4C8
:10194300051208BE69F8051208BED37F001208BE4F
:101953000080021208BE5780021208BEC380021222
:1019630008BE4F81021208BE0582021208BE4D82D4
:10197300021208BE6682021208BE8982021208BEE3
:10198300AB82021208BEE982021208BE3883021239
:1019930008BE6383021208BEC183021208BE6884B4
:1019A300021208BE1085021208BE8C85021208BE00
:1019B3005986021208BEA086021208BEEC860212E5
:1019C30008BE7487021208BEAD87021208BE0388E0
:1019D300021208BE1F88021208BE4E88021208BEF9
:1019E3005A8A021208BE888B021208BEB48B0212F6
:1019F30008BEE88B021208BE098C021208BE188CBE
:101A0300021208BE238C021208BED28C021208BE38
:101A1300428D021208BECD8D021208BED58D021270
:101A230008BE428E021208BE7E8E021208BE448F8A
:101A3300021208BE1790021208BE6C90021208BE72
:101A43000B91021208BE6591021208BEAA910212FE
:101A530008BE4394021208BE8695021208BE70980F
:101A6300021208BE5499021208BE389A021208BE26
:101A7300499A021208BEBB9A021208BE529B021276
:101A830008BEB79B021208BEA79C021208BECC9CDC
:101A9300021208BEEA9C021208BE069D021208BE8C
:101AA300799D021208BE889D021208BE109E021282
:101AB30008BE0D9F021208BE1A9F021208BE239F82
:101AC300021208BE05A1021208BE27A2021208BE16
:101AD30037A2021208BE65A3021208BEE4A30212D3
:101AE30008BEFFA4021208BE3BA5021208BE15A73A
:101AF300021208BED2AA021208BEE6AA021208BE49
:101B0300F0AA021208BEFAAA021208BE04AB02121D
:101B130008BE1DAB021208BE27AB021208BE94AB6F
:101B2300021208BE9FAB021208BEC7AB021208BE68
:101B3300D2AB021208BE37AC021208BE42AC02128C
:101B430008BE66AC021208BE8AAC021208BEFCAC28
:101B5300021208BE45AD021208BE61AD021208BEF4
:101B6300D2AD021208BE1EAE021208BE67AE02124A
:101B730008BEA5AE021208BE26AF021208BECDAF44
:101B8300021208BE9CB1021208BE01B2021208BEC4
:101B93002FB3021208BE55B3021208BE9DB402123F
:101BA30008BED7B7021208BED5B9021208BEA0BB41
:101BB300021208BE39BC021208BE3ABE021208BEA7
:101BC300EFBE021208BE28BF021208BE8EBF021269
:101BD30008BE98BF021208BEC1C1021208BE00C3EC
:101BE300021208BE57C3021208BE02C4021208BE84
:101BF300B2C5021208BEFFC6021208BE1FC70212F8
:101C030008BE74C7021208BE75C8021208BE9DC87A
:101C1300021208BEFCC8021208BEF4C9021208BEB2
:101C23006BCA021208BE7ECB021208BEECCB0212B4
:101C330008BEEBCC021208BE45CF021208BE6ECF1F
:101C4300021208BED4D0021208BE56D2021208BE37
:101C5300ADD2021208BE5BD3021208BE00D4021238
:101C630008BE59D4021208BE17D5021208BEA9D560
:101C7300021208BE08D6021208BE4AD6021208BED5
:101C83007BD6021208BED2D7021208BE008003120E
:101C930008BE3280031208BE6B80031208BE29827D
:101CA300031208BEFF82031208BE5E83031208BE3E
:101CB3007484031208BEC084031208BE4E87031245
:101CC30008BE288A031208BE6F8B031208BE078C56
:101CD300031208BE138C031208BE5C8C031208BEE9
:101CE3009E8D031208BE948E031208BEBE8E03128D
:101CF30008BE148F031208BE6D8F031208BEE08F57
:101D0300031208BE1692031208BE9893031208BE6C
:101D13008394031208BECD95031208BE05980312DF
:101D230008BE029B031208BE119B031208BEA59BAB
:101D3300031208BE509C031208BE939C031208BEF4
:101D4300FB9C031208BE179D031208BE469D031297
:101D530008BE859D031208BE809E031208BE2F9FF6
:101D6300031208BEACA1031208BEDEA2031208BE12
:101D7300B6A3031208BE38A4031208BE6DA803124B
:101D830008BE9CA8031208BEF7A8031208BE2AA91E
:101D9300031208BEA2A9031208BED5A9031208BEE6
:101DA30036AA031208BE86AA031208BE53AB031257
:101DB30008BE0CAC031208BED0AC031208BE4AAF77
:101DC300031208BEACB0031208BEFDB1031208BE75
:101DD30021B3031208BE24B3031208BE53B3031284
:101DE30008BE4BB5031208BE0AB6031208BE39B6C5
:101DF300031208BE57B7031208BE1FB8031208BE6A
:101E0300DDB9031208BE0FBA031208BE51BA03129A
:101E130008BE50BB031208BEC3BB031208BEECBD11
:101E2300031208BE4BBE031208BE9FBE031208BEB8
:101E3300CEC0031208BEB1C1031208BE39C20312D9
:101E430008BE27C3031208BE3BC3031208BE4FC319
:101E5300031208BE7CC3031208BEACC3031208BE40
:101E630067C5031208BE79C6031208BECEC60312A5
:101E730008BE17C7031208BE3EC7031208BE06C832
:101E8300031208BEACC8031208BE32CA031208BE4E
:101E930079CA031208BEEBCA031208BE40CC031270
:101EA30008BEE9CC031208BE1DCD031208BE35CD12
:101EB300031208BED8CD031208BE54D0031208BEC5
:101EC300FCD1031208BE1AD2031208BE38D2031281
:101ED30008BE04D3031208BE52D6031208BE78818B
:101EE300011208BEB081011208BEA486011208BE09
:101EF300F086011208BE3687011208BE6C880112F3
:101F030008BED188011208BE468A011208BE508D50
:101F1300011208BE798E011208BE8C98011208BE08
:101F23001C99011208BE069C011208BE139D0112E2
:101F330008BE769D011208BEBE9E011208BE2CA1EA
:101F4300011208BEBEA2011208BE4BA3011208BEB5
:101F53006AA4011208BEF7A4011208BE01A501126A
:101F630008BE29A5011208BEC9A5011208BEB4A660
:101F7300011208BE81A7011208BE9EA7011208BE66
:101F8300C7A7011208BEF4A7011208BE3BAA01129B
:101F930008BE0AAB011208BE49AB011208BECBABA7
:101FA300011208BE6CAC011208BE9EAC011208BE41
:101FB300E5AC011208BE18AD011208BE5CAD0112FA
:101FC30008BEABAD011208BEB0AD011208BE0CAE27
:101FD300011208BE50AE011208BE2AAF011208BE9C
:101FE3008FAF011208BEF5AF011208BE70B0011227
:101FF30008BED8B3011208BEDBB4011208BE59B63D
:10200300011208BE6FB9011208BE11BA011208BE4F
:102013005ABC011208BE15BD011208BE54BD0112FF
:1020230008BE2CBF011208BE49BF011208BE52BF31
:10203300011208BE5BBF011208BE66BF011208BED3
:1020430085BF011208BE29C1011208BE86C1011253
:1020530008BE90C1011208BE9AC1011208BEF9C19F
:10206300011208BE43C2011208BE44C3011208BED6
:102073009BC3011208BEACC4011208BEF5C4011211
:1020830008BEAFC5011208BEC6C6011208BE9BC773
:10209300011208BEE2C8011208BEE6C9011208BE59
:1020A300DFCA011208BEF7CA011208BE2ECB011205
:1020B30008BE38CB011208BE42CB011208BE4DCB7D
:1020C300011208BE6BCB011208BEB3CB011208BECE
:1020D30011CC011208BE38CC011208BE4ACC011241
:1020E30008BEFFCC011208BE38CD011208BE5ACE7D
:1020F300011208BEADCE011208BE93CF011208BE75
:10210300BACF011208BE2AD0011208BEA6D001120E
:1021130008BE02D2011208BE29D3011208BEEBD3B6
:10212300011208BEB9D4011208BE77D5011208BE48
:102133005FD6011208BE09D7011208BE71D701127A
:1021430008BE26D8011208BE82D8011208BEDAD80A
:10215300011208BEA0D9011208BEC3D9011208BEDC
:102163007EDA011208BEA0DA011208BE01DB0112F9
:1021730008BE31DD011208BE2ADE011208BED6DE1A
:10218300011208BEF7E0011208BE40E1011208BEC9
:102193008BE1011208BEE7E1011208BE45E201121C
:1021A30008BE69E2011208BE8DE2011208BEC2E256
:1021B300011208BEEAE2011208BE2FE3011208BEB3
:1021C30083E3011208BEDCE3011208BED6E4011268
:1021D30008BE74E6011208BEB9E6011208BEE2E6C3
:1021E300011208BE6BE7011208BEDEE7011208BE4A
:1021F300ECE7011208BE10E8011208BE66E80112FE
:1022030008BE81E8011208BE3CE9011208BE68E974
:10221300011208BEABE9011208BE0EEA011208BEA4
:102223001CEC011208BE48EC011208BE03ED0112BA
:1022330008BEE7ED011208BE7BEE011208BEACA892
:10224300051208BEE4A8051208BE05A9051208BEBA
:1022530047A9051208BEABA9051208BEB5A9051208
:1022630008BEC5A9051208BEFCA9051208BEA5AD86
:10227300051208BE6DAF051208BE51B1051208BEA6
:10228300F3B1051208BE7DB2051208BE992F0012E4
:1022930008BE4230001208BE2131001208BE2D32A2
:1022A300001208BE4D32001208BE6F33001208BE82
:1022B3001F35001208BE8C35001208BE5D360012B1
:1022C30008BE6337001208BEDB37001208BE16389B
:1022D300001208BE6F38001208BEAA38001208BEEA
:1022E300F338001208BE8739001208BE1D3A0012E7
:1022F30008BEF23A001208BEC53B001208BE533CAA
:10230300001208BE793C001208BEA63C001208BEAB
:10231300D73C001208BEA43D001208BEB43D001213
:1023230008BE073E001208BE143E001208BE213E3E
:10233300001208BE2A3E001208BE8E3E001208BEDE
:10234300EC3E001208BE373F001208BE523F001297
:1023530008BE793F001208BE963F001208BEA23F96
:10236300001208BE3341001208BE4C41001208BEE1
:10237300C841001208BEDB41001208BEEB41001247
:1023830008BE8F42001208BEFB43001208BE0E4572
:10239300001208BEAE45001208BEB845001208BEC2
:1023A3003746001208BE4846001208BE8746001290
:1023B30008BEB546001208BE8247001208BED947C0
:1023C300001208BE1248001208BE6848001208BE78
:1023D3008648001208BED448001208BE9F49001266
:1023E30008BEED49001208BE3A4A001208BEBD4AB3
:1023F300001208BEE74A001208BE1D4B001208BEB9
:102403002C4B001208BE8B4B001208BE034C00126B
:1024130008BE444C001208BE944C001208BEBF4CC8
:10242300001208BED94C001208BEF34C001208BEBD
:10243300C84D001208BED24D001208BE0D4E001248
:1024430008BE1D4E001208BE264E001208BE774E6F
:10245300001208BE8B4E001208BEAD4F001208BE1C
:10246300C24F001208BE5550001208BEC9500012D8
:1024730008BE6E51001208BE7951001208BEDC522C
:10248300001208BEF852001208BE4453001208BEE0
:10249300B253001208BEE453001208BEFE530012EA
:1024A30008BE5E54001208BEFD54001208BE485513
:1024B300001208BE9B57001208BE3358001208BE14
:1024C300AA58001208BE075B001208BE1F5B001269
:1024D30008BE225B001208BE2E5B001208BE425BE0
:1024E300001208BE4A5B001208BE815B001208BEE0
:1024F300755C001208BEFF5C001208BE815D00120D
:1025030008BE015E001208BED85E001208BEFA5E65
:10251300001208BE935F001208BEF05F001208BEEF
:10252300F35F001208BE6260001208BEAE610012C3
:1025330008BEC162001208BE4C63001208BE5F648D
:10254300001208BE2665001208BE5765001208BEB9
:102553007D65001208BE8665001208BEB5650012CF
:1025630008BE6566001208BE1567001208BE8867BC
:10257300001208BE2B68001208BE9E68001208BE37
:10258300DD68001208BE2669001208BEBD8406126B
:1025930008BE9D88061208BE3588061208BE20882C
:1025A300061208BE1088061208BED6FF041208BE23
:1025B300FBFF011208BEBCFF041208BE1EFF04127B
:1025C30008BE0DFF041208BE119D051208BE359CFE
:1025D300051208BE539B051208BEB299051208BE28
:1025E3007199051208BE4899051208BEFC98051298
:1025F30008BE6B98051208BEDB97051208BEB99793
:10260300051208BE6197051208BE1D97051208BE84
:10261300AA96051208BE4596051208BEB5E705122F
:1026230008BEF495051208BEE3E5051208BE0EE5E3
:10263300051208BE95E4051208BE87E4051208BE1C
:1026430089F5051208BE4CF5051208BEEBF4051218
:1026530008BE52F4051208BE1B95051208BE8B94E2
:10266300051208BE3F94051208BEBA93051208BEB0
:10267300ECF3051208BE7593051208BE59930512B3
:1026830008BEF891051208BECA91051208BEADF343
:10269300051208BE9791051208BE41DC051208BE5B
:1026A3001B91051208BE78FF031208BE16FF031222
:1026B30008BEE1FE031208BEAEFE031208BE86FE8C
:1026C300031208BE1CFE031208BEFEFD031208BE61
:1026D300CFFD031208BE96FA031208BE83F8031255
:1026E30008BE86F6031208BE06F6031208BEB4F54A
:1026F300031208BE68F5031208BEA985061208BEB8
:10270300FBF4031208BE7CDF0500000080FB000021
:102713000300200175810000000020017681000084
:102723000400420180800000050042016F80000028
:10273300060042015E80000007002001778100004F
:1027430010004201311B0000110020010717000097
:1027530012001003421B06000000100100001200CB
:10276300550020010000050B000021010000050BAE
:10277300010021010000050B000123010000050BEE
:10278300010123010000050B020123010000050BD9
:10279300030123010000050B040121010000050BC7
:1027A300050121010000050B060121010000050BB5
:1027B300070121010000050B080121010000050BA1
:1027C300090121010000050B0A0121010000050B8D
:1027D3000B0121010000050B0C0121010000050B79
:1027E3000D0121010000050B0E0121010000050B65
:1027F3000F0121010000050B100121010000050B51
:10280300110121010000050B120121010000050B3C
:10281300130121010000050B140121010000050B28
:10282300150121010000050B160121010000050B14
:10283300170121010000050B180121010000050B00
:10284300190121010000050B1A0121010000050BEC
:102853001B0121010000050B1C0120010000050BD9
:102863001D0128010000870001009C1B35000400A6
:10287300611B25000200651B26000200671B270061
:102883000200691B28000100731B29000100741B4F
:1028930084000400751B86000100791B2A000100D7
:1028A3007A1B2B0001007B1B2C0001007F1B2D00DA
:1028B30008008E182E000100801B2F000100811BD1
:1028C30030000100821B31000100831B3200010034
:1028D300961833000100971834000100841B36005A
:1028E3000100981838000100851B390001007E1B88
:1028F300830002009A1B63000100A4186400010016
:102903007C1B650001007D1B6D000100A518710093
:102913000800861866000100991B430001008A1B0A
:10292300440002008B1B450001008D1B4600020082
:102933008E1B470008009C1848000100901B4B00A9
:102943000100911B040001009D1BA1000100A01BBD
:10295300370001009F1B880001009E1B3C00010003
:1029630099183D000100861B49000200921B670075
:102973000100A6184D000200941B4E000100961B97
:102983004F000200971B3E0001009B1851000100FD
:10299300871B52000100881B53000100891B540050
:1029A30001009A1800000000000000013636010102
:1029B30000010201000103010001040106060502F2
:1029C3000000070100340801000F090401010D0193
:1029D30000FF0E08000017020000190100FF1A0192
:1029E30000011B0100FE1C0100081D0200001F0165
:1029F300000120010001210200002301000F240235
:102A030000002601000127010008280200FF2A0117
:102A130000072B0102402C0100002D0100012E01B3
:102A230000012F0100FF30010B1D310800003A01A6
:102A330000083B01000F3C0100013D0100FF3E0483
:102A4300000042040000460400004A0400004E0453
:102A5300000052040000560400005A040000000065
:102A6300210100010021020000012366000101236E
:102A73006700020123680003012369000401216A3E
:102A8300000501216B000601212C010701212D0105
:102A93000801212E010901212F010A012130010B17
:102AA300012131010C0121C8000D0121C9000E01D2
:102AB30021CA000F0121CB00100121CC00110121FB
:102AC300CD00120121CE0013012132011401213363
:102AD30001150121CF001601213401170121D00076
:102AE300180121D100190121D2001A0121D30001BB
:102AF3000371030103010301030103010322030221
:102B03000301031003000300030003000300030099
:102B1300030003420300032403060300030003042A
:102B230003120325032303250323030403040300E0
:102B330003000300034403000300032303000365AE
:102B43000321003503810300030503000300030091
:102B53000300032503230303047104020460041127
:102B6300047004020402040104020410046104005A
:102B7300041404630473047204620443040004131E
:102B83000406040004000404041204000400040006
:102B9300040004510464000004000400044404001D
:102BA3000400040004000465040004350481046483
:102BB3000005040004830400040101710101010103
:102BC30001110101013101010101018001100161C4
:102BD300013B0014006301730172016201430100B0
:102BE30001130106013D013500040112010001003A
:102BF300010001000104010401330133013C0144DC
:102C03000132013600000100016501000135008138
:102C130001000105018201830100010300710030FD
:102C23000160001100700031022003500480001085
:102C3300006100000014006300730072006200432F
:102C43000000001300060000000000040012000052
:102C53000000000000000004000400370037003CBF
:102C63000244000000000000000000650000003581
:102C730000810000000500000083000000030271D2
:102C8300023001600211027002010202020202809C
:102C930002100261023A004100630273027202628F
:102CA300024302000213023800000200020402126F
:102CB300020002000200020002040204023700378D
:102CC300003C0244020002390000020002650200D7
:102CD30002350281020002050282028302000236EB
:102CE300000100060000000F0000000000000000CB
:102CF300000000000003FFFF00000403FFFF0000CB
:102D0300FFFF0FF4010005C4040320000100000BC2
:102D1300000000000000000003010F00000000009D
:102D230000000000000000000000000000000000A0
:102D330000000000000000000000000000A812F6E0
:102D430012AE12DC110000000000000000000000C1
:102D53000000000000B412DC11BA12DC11C012DC56
:102D630011C612DC11CC12DC11D212DC11D812FC08
:102D730012DE12DC11000000000000000000000061
:102D830000E4120E13EA12DC11E4120E13EA12DC51
:102D930011D812FC12F012DC110000FE161300868B
:102DA300161F008C161F8092160100FE1602000EDD
:102DB300160300141604001A160500201606002C2C
:102DC3001630004A16310044163200561633005CA2
:102DD30016350062163400681636006E1611007A36
:102DE300161400801615003E16FFFF00000A0000AF
:102DF30000020000000400000008000000100000B2
:102E030000200000004000000080000000000100DE
:102E13000000020000000400000008000000100091
:102E230000002000000040000001201F064A1F0888
:102E3300441F0B621F103E1C02261F05381F072C60
:102E43001F0C081F0D141F643A1AFF000007ECFD46
:102E5300FDFDECDCDCCCBCACAC9C9C8C7C7C6C6C5D
:102E63005C5C5C4C4C3C3C2C2C1C1C03EAF5E5D50F
:102E7300D5C5B5A59595858575756565555545453F
:102E83003535252515150500000004060000040648
:102E9300000104060002040600420400160F0000AD
:102EA3000B150B020002220F3300000E010305076E
:102EB300090B0D0F00020406080A0C0D5A6967423C
:102EC3006565416C6C69616E6365303900034A491D
:102ED300434E181A250502303017181921301B1DCF
:102EE3001F30000119161816161823030000393D68
:102EF3003F373C3C362C442D303016181920231A0A
:102F03001C1E300C0E020B040B0A0708000F0204F0
:102F130002010101010902E803000000BE040A00E6
:102F2300007F000E000000E80300040405100908F8
:102F330003030A040C2B10080C281E1EFF090301AF
:102F43000C0508150500E0041237C9A2E792AF2269
:102F5300E4F0A3F0A3F022A3122F53A3F0227F0CDB
:102F63000206A7E0F508E4F509F50AF50B2274015A
:102F7300F0900392E0640F2274091209097F04029E
:102F830006A7A3A3E024F5C39413229003B2125A15
:102F9300C27A147B0022C082C0839019C074ECF003
:102FA300A37422F0A374FEF0A37422F09019C474E6
:102FB300D4F0A37422F0A374CEF0A37422F0A3740C
:102FC3000AF0A37423F0A37410F0A37423F0A37482
:102FD30004F0A37423F0A374BCF0A37422F090193B
:102FE300D074E0F0A37422F0A374E6F0A37422F08B
:102FF300A374DAF0A37422F0A37416F0A37423F07D
:103003009019E112504F60061252B91210C890196C
:10301300DE1247727408F0A3E4F0A3F0901A81F073
:103023009019E3F07C0BFDF97AE47B19120FFC7C19
:103033000B7D0079007AEF7B19120FFC02477B743A
:10304300F71203E274F71209A1EAFEEBFF124599A6
:10305300740512310F7403F0EE2402FAE43F1230C8
:10306300E9242DFCE43FFD8C828D8312322712303C
:10307300F8600812397174FFF0A3F0EE242BE43FDB
:103083001C1CFD8C828D83A3E0C0E08A828B83129B
:1030930045AAD0E01230F888828983124DA2240316
:1030A30012588C1211B87408120BE17403F09003D8
:1030B300A712076674021209997903EEFAEFFB125D
:1030C30024AE7402120909E9F5087007EEFAEFFB62
:1030D30012238EA9087409023981F582E43FF5832E
:1030E3001264F7124D97FB8A828B83123107E8F043
:1030F300A3E9F0EE22125AE0123107E8F0A3E91235
:10310300605CE0221231F28A828B8322F0A3E4F026
:1031130012311722EE240DF582E43FF5832274F178
:103123001203E2EAFEEBFF8C088D09890A1231FCD7
:103133008A828B831231F2740F120BE1123215E87B
:1031430024FF18E934FFF988828983E50A123207DC
:103153009003AC1232049003AB1232047411120BBD
:10316300E1123215EE2404FCE43FFD880B8A828BC6
:1031730083E0F50C8C828D83E0250CC3950B125AEA
:10318300DCE8F0A3E9124506A3A3A3A3A3A3A3A387
:10319300E064037008124862F0A3E4800312350868
:1031A3001231127409F0750CE4750D19750E00785F
:1031B3000C1208D71234FC120FF0740312090975AC
:1031C3000CFF750DFF780C1208DBAC08AD09790311
:1031D300EEFAEFFB1224AE7402120909E9F5087046
:1031E30007EEFAEFFB12238EA9087F070206A7E07A
:1031F30024FFF8A3E034FFF922EE2402FAE43FFBB4
:103203002212322712320B22F0E824FF18E934FF8E
:10321300F922E0F50CA312322712320B888289833C
:10322300E50CF022E08882898322C082C083901A51
:1032330000E0C39408400474078001E08A828B8312
:10324300F033333354F8F902477B74F01203E2EAA4
:10325300FEEBFF890C8C0E8D0F750A00A2AFE433D1
:10326300F50BC2AF9019FA803F1233355037123342
:103273004664037030EE24F9FEEF34FFFF850882C5
:10328300850983A3A3E02405FCA3E03400FDEEFA43
:10329300EFFB1211B8EE24FF1EEF34FFFF7410256D
:1032A3000AF50A150C1244D31264F3E50C6006E523
:1032B30008450970B4E50BA2E092AFA2AFE433F581
:1032C3000BC2AF9019FA802C2402FAE43509FB8A69
:1032D300828B83125ACB2406F582E438F5831233AA
:1032E300538A828B8312333BA3A3123353050A15EC
:1032F3000C1244D31244E86022123346640270F184
:10330300123335E50840C1123636A2E550E3850E87
:1033130082850F837401F0E50C70D6E50BA2E09271
:10332300AF8E828F83E50AF0EE24FFFAEF34FFFBC2
:103333008035123641A2E62212333F22125EC0A329
:10334300A3A322850882850983125EBA1254F4224C
:10335300E08E828F83F0EE24FF1EEF34FFFF2212F4
:10336300257A74041209097F080206A774EC120374
:10337300E274F51209A189138A128B0F85188285CD
:103383001983E4F00412099112229EE9F890039143
:10339300E0292434F508FA7B001210148A0A8B0BF7
:1033A300AE0AAF0BEE4F70030234F0EE2402F50ABF
:1033B300E43FF50BA808EE28F8E43FF9850A828577
:1033C3000B831230F12404F510E43FF511851082CC
:1033D300F583E4F0900391E0FCF8C3E498F895E0FA
:1033E300F9850A82850B83E028F508A3E039F509FE
:1033F30090038F125784750E00780C1208D77D0046
:10340300AA08AB09120FF07403120909AC18AD191D
:103413007401120BE1E0F9E50824FFFAE50934FF32
:10342300FB1222A48A828B83E4F0EA24FFF508EBE3
:1034330034FFF509E50FC454F0F9901A82E0C43360
:103443003354C0F890038BE0A2E0E43313134849EC
:10345300440F123510E512C454F0451385088285D4
:103463000983F0A808850A82850B83E0FA85108218
:10347300851183E02AC398F0850A82850B83E8F0DF
:10348300A3E509F0123508123112E4F0740A120BA5
:10349300E1E4F07508EF750919F50A78081208D701
:1034A3001234FC120FF0740312090985188285196E
:1034B30083E06009EE240E12462F4408F01224968E
:1034C300E9F9E4F508F50978081208DB7404120930
:1034D30099EEFAEFFB1224AE7402120909E97006A1
:1034E300EEFAEFFB800BEEFAEFFB12101A7A007B79
:1034F30000740B120909022F617C0B7D00EE241866
:10350300FAE43FFB2212459DE4F0A322E085088202
:1035130085098312351A22F01257582274F31203C5
:10352300E28A0A8B0BA2AFE433F50CC2AF75080035
:103533007509009019FA802C12375D5024850A8290
:10354300850B83A3A31269208E828F83A3A31252B8
:10355300BC12249CE9600A123583C2E6F08E088F00
:1035630009123752123A0B70CFE50845096006126B
:10357300363DD2E6F0E50CA2E092AF7F050206A746
:1035830012358722125771E02274F01203E2EAFE29
:10359300EBFF8C0C8D0D750E00A2AFE433F50FC25B
:1035A300AF7508007509009019FA8020850A08850F
:1035B3000B0912363DD2E4F0E508123636D2E7F0B5
:1035C300E50A24FBF582E50B34FFF583E0F50AA356
:1035D300E0F50BE50A450B6043E50A1243BE350BE4
:1035E300F583E0A2E750D9850A82850B83A3A31252
:1035F3000766AC0CAD0DEEFAEFFB1224A2740212B7
:103603000909E960BBE508450960A1E508240D1235
:10361300364964017006123652D2E4F0E50FA2E097
:1036230092AFE50845096006122388750E01A90EBD
:1036330002336A1243E812364C2212364122E5085D
:10364300241112364922F582E43509F583E02285F7
:103653000882850983125EBAE02274F21203E274CF
:10366300FE1209A1750C00750D008518828519835A
:10367300E4F0A3F0A2AF33F50AC2AF9019FAE0FE6B
:10368300A3E0FF8035EE24FBF582EF34FF1264F1F3
:10369300780C1208DBEEFCEFFD7AFA7B1912104A64
:1036A3007402120909EEFCEFFDAA18AB19121038C7
:1036B300AE08AF09901A00E014F0EE4F60271237FE
:1036C3005D501DEE240BF8E43FF988828983E024E2
:1036D300FFF0A3E034FFF08882898312504F60A586
:1036E30012374E8099E50AA2E092AF901A00E0608B
:1036F30031900392E0640F6006901A81E070237AA0
:10370300D87B1912258690816E1207627AD87B19AD
:1037130012257A7404120909800874F01249991267
:10372300237CAA18AB1912103E8A0A8B0BAE0AAF80
:103733000BEE4F60131222B0123583A2E28E828FFA
:1037430083A350D674E980D4023A138E0C8F0DEE06
:1037530024FBF582EF34FFF58322123587A2E7229B
:1037630074F71203E2EAFEEBFF1222B01245A7122E
:1037730005C2E964019003AE700AE02401F8A3E0F6
:1037830034008004E0F8A3E0F9124BF5124FA79040
:103793001A00E07021900392E0640F70197AD87BCD
:1037A3001912258690816E1207627AD87B19122529
:1037B3007A7404120909A9A8C2AF901A00E004128E
:1037C30037C9A2E7800DF0E9A2E7E433F8E922E57F
:1037D30008A2E092AF024A3574F71203E2EAFEEB65
:1037E300FF123810F01222B0EEFCEFFD7AFA7B19CB
:1037F300121044A9A8C2AF901A00122F4990039245
:10380300E0640F7005790812244E024A3512358799
:10381300C2E42274F71203E274EA1209A1EAFEEB8E
:10382300FF90038BE060408518828519837401F053
:10383300120BE1E41238E8120BE1AA82AB831211F6
:10384300B88E828F83123658C0E0740A120BE1D00F
:10385300E0125AF1740B120BE1AA82AB831224C655
:10386300AA18AB1912192C741602398174F71203B2
:10387300E2EAFEEBFF122292E9F974DC69601E743E
:10388300DD69601974E469601474F369600F74DEB0
:1038930069600A74DF69600574DB697007EEFAEF2B
:1038A300FB122454024A3574F71203E274EB120933
:1038B300A1EAFEEBFF85188285198374061238E8A6
:1038C300120BE1AA82AB831211B8125AF6740A12D0
:1038D3000BE1AA82AB831224C6AA18AB1912192CC6
:1038E3007415023981F0EE2413FCE43FFD740222C7
:1038F30074F71203E274F71209A1EAFEEBFFEE2458
:103903002D12462F60651241C0AA18AB191211B8C7
:103913007408120BE17403F09003A71207661239BF
:10392300711207669003BAE0F97404120999EEFA6A
:10393300EFFB1222987404120909E9F974DC696037
:103943002374DD69601E74E469601974F36960149B
:1039530074DE69600F74DF69600A74E86960057476
:10396300DB697007EEFAEFFB1224540230D8EE1233
:10397300397622242BF582E43FF58322740312095E
:1039830009024A3574F21203E28A088B09750C00A6
:10399300750D00750AE7A2AFE433F50BC2AF9019BA
:1039A300FA800312374E123A0B603512375D50F32B
:1039B30012462C640170ECEE242FF582E43F123B97
:1039C300BAE06870DE780C1208DBEEFCEFFD7AFAE1
:1039D3007B1912104A7402120909901A00E014F0BC
:1039E300E50BA2E092AFEE4F6013EEFAEFFB12226B
:1039F300B079F0EEFAEFFB122454750A00A90AAA73
:103A030008AB09122454800DE0FEA3E0FFEE4F2221
:103A130074021209097F060206A774F41203E27402
:103A2300F71209A1EAFEEBFF8E828F83A3E064F312
:103A33007003023AC78E828F83A3E064DF700302B0
:103A43003AC78E828F83A3E064E860788E828F8387
:103A5300A3E064DB606E1222F2E9F508705EEE24E7
:103A63000E12462F6056123AD112233AEA4B604C9B
:103A73007408120BE1123ADB1207667508FF750929
:103A8300FF78081208DB8E828F83A3A3A3A3A3A3CB
:103A9300A3A3E0F974041209991222987404120979
:103AA30009E9F50874F36508601274DF6508600CB2
:103AB30074E86508600674DB6508700F8E828F8377
:103AC300A3E508F0EEFAEFFB1222FE022F7BEE24B1
:103AD3000FFAE43FFB79092274021262B974FFF012
:103AE300A3123AE822123AEC22124DABA3A322749A
:103AF300F51203E28A088B097E008A828B83A3A3D3
:103B0300A3A3A3A3122F8540027EE88A828B83A3FB
:103B1300A3A3A3A3A3A3A3A3A3E0C3941040047EDE
:103B2300E880138A828B83A3A3A3A3A3A3A3A3A342
:103B3300A3E0640F600A901A5EE0540870027EE806
:103B4300EA240BF582E43509123BBAA3A3A3A3A38A
:103B5300A3A3A3E0C398500CEA240B123649640FC5
:103B630060027EE89003ABE0F47003A3E0F470021C
:103B73007EEC7A237B001210C29019E11252CC9092
:103B830019E112504F6029850882850983A3A3A9EF
:103B930082AA8389088A09750A0078081208D77CE3
:103BA300237D001252B9120FF07403120909800227
:103BB3007E1AEEF902645AF583E0F88A828B83A3B6
:103BC300A32274F51203E2EAFEEBFF8E828F83A336
:103BD300A3A3A3A3A3A3A3E090039212619C9003C6
:103BE300AD12618290038D1261A1901A82F0F912D5
:103BF3000D56901A82E06018EE2404FAE43FFB7934
:103C030050120D3EEE2406FAE43FFB79E1120D3E1D
:103C1300901A81122F71600474018002740090194C
:103C2300E31261881208D77C0B7D007AE47B1912BA
:103C33000FF07403120909EE2418F508E43FF5099F
:103C430078081208D77C0B7D007AEF7B1902645247
:103C530074F71203E2EAFEEBFF8E828F83A3E07018
:103C6300061252B91222F88E828F83742C1249994C
:103C7300122460024A3574F71203E2EAFEEBFF9066
:103C830019E112504F600D1252B99019E1E4F0A3FB
:103C9300F01210C88E828F83740812499912192C5E
:103CA300024A3574F61203E2901A81E06013901908
:103CB300E3E0700D123CC71222AAEA4B6003122301
:103CC3008E025DFC90038DE0FB9003ADE0FA900360
:103CD30092E0F92274F41203E274E71209A1EAFEF6
:103CE300EBFF750B018E828F83A3A3A3A3A3A3A3CF
:103CF300E0A2E25068EE242BF582E43F12691E1223
:103D03003D951222B6E970559080DFE0640170059D
:103D1300750B008048123D9D1208D77C0B7D007403
:103D230011120991120FF07403120909122496E972
:103D3300FA740E1209898808890978081208DB7554
:103D4300083075090078081208DB1239711207660A
:103D5300125A9279011224B4740612090985188241
:103D630085198374101238E8120BE1AA82AB83120F
:103D730011AC123971125ABE740B120BE1124FA718
:103D8300740D120BE1E50B12480C12192C74190275
:103D93002F7DEE2413FAE43FFB22EE2408126190F8
:103DA30022C082C083901A82E06003122508024772
:103DB3007BC082C083901A7974C0F0A37419F0A3F6
:103DC30074C4F0A37419F0A374D0F0A37419F09021
:103DD3001BB4745AF0A3742BF0901A63748CF0A381
:103DE3007422F0901A0574C2F0A37422F0901A079B
:103DF30074C8F0A37422F0901A5EE044028001E4D8
:103E0300F002477BC082C083EAFCEBFD7903024EDC
:103E130017C082C083EAFCEBFD7905024E17C0820E
:103E2300C0837908025F8DC082C08374FE1209A12A
:103E3300901A0D7476F0A37423F0901A0F7470F037
:103E4300A37423F0800D7AFA7B1912103E124802F4
:103E53001224849019FA12504F70EB9019FC1250EF
:103E63004F600F7AFC7B1912103E12480212248411
:103E730080E99019FAE4F0A3F0901A00122F547419
:103E8300028002741112090902477B74F61203E2DD
:103E9300E9FF74F029F582E4342EF583E493FEFA06
:103EA3007B00121014EA4B6011EA2E124F9D8A8296
:103EB3008B83A3A3A3A3E4F0802C7A027B001210CC
:103EC30014EA4B601D74DA2FF582E4342EF583E493
:103ED300938A828B83F0A3741AF0901A59E0F91233
:103EE30010207A007B00025DFCE9FC740629F8EAE5
:103EF300A2E0501EE875F00A84E5F0F96014740A34
:103F030028C399F8E9C394054004740A28F8740B8C
:103F130028F8ECC3941340047A1480027A06EA2842
:103F230079002409F85001097A0A7B00120292E809
:103F3300F90208BBC082C083901A5EE05402600A93
:103F4300121932E9600479018002790002477BC0CB
:103F530082C083901A5EE054026016901A00E070EB
:103F63000C12504C600BE0C81244E05004790180FD
:103F730002790002477BC082C0839080DCE0F89026
:103F83001A02E0C398500512101480047A007B00D3
:103F930002477BC082C083122484790002477B746A
:103FA300F71203E274FE1209A1851882851983EAC8
:103FB300F0A3EB124111A3A3A3A3A3E0600A14602F
:103FC3006024FE6069024092900392E0640F6018DF
:103FD30012245AE970128518828519831252BC90F3
:103FE3001A091245AA1205C29003BAE0C0E0851867
:103FF30082851983124D75D0E01241117414126237
:10400300B51269207AFC7B19121038A8A8C2AF90A8
:104013001A02E0041252D2792012244E7402023999
:1040230081851882851983125EC2741580D0851824
:10403300828519831240F4A3A3E060538518828517
:104043001983E02402F8A3E03400F98882898312FB
:1040530066F3E0C0E0851882851983E0FCA3E0CC19
:104063002406F582E43CF583D0E0125AFE88828967
:10407300831252CC8518828519831243DC851882FA
:1040830085198360131240F960051241014043AA68
:1040930018AB1912248480841240F960F212410192
:1040A300501C1244F0FA8518828519831240FBF8DC
:1040B3007410124F98342FF583E4936A60148518B3
:1040C300828519831240F9640870C41244F06408AD
:1040D30070BD1244F014124119240AC0E0851882FD
:1040E3008519831245AAD0E012411904024001E068
:1040F300F8A3124DC222E0F8A3E012412022851852
:1041030082851983125ACF124121C3940A22124184
:104113002BF58388822212412B12412022C82406C8
:10412300F582E438F583E0221262B9E0F8A3E022D5
:10413300C082C083901A1112504F6008125EC312DE
:1041430005C28002790002477B74F71203E2EAFE9C
:10415300EBFF1231177401F0EE2430F582E43FF5E2
:104163008312582C1230F1243212462FC0E0EE2471
:1041730013F582E43FF583D0E0F0EE243312462FAB
:10418300C0E0EE2414F582E43FF583D0E0F0EE24A2
:104193002CF582E43FF5831207661241C0EE242E0C
:1041A30012462FF91224AE7402120909E9F50870B8
:1041B30007EEFAEFFB12238EA908024A35EE2423F9
:1041C300FCE43FFD22C082C08312245AE9600479D3
:1041D300208002790102477BC082C083EA1243BE7A
:1041E30012427FD2E0023E03C082C083124279644E
:1041F300017011124284400C8A828B83A3E0F9126E
:104203002454806FEA241012427CA2E650128A8260
:104213008B83A3E0F9901A0B1245AA1205C28053AF
:104223001242796401700D12428450088A828B8392
:10423300743080368A828B83A3E0641B8A828B83EB
:10424300700474228024A3E0700D124279F874FB89
:10425300124F98342E800B124279F874DA124F9869
:10426300342EF583E4938A828B83F0901A59E0F914
:1042730012102002477BEA240DF582E43BF583E02C
:1042830022EA1243E83BF583E0A2E32274F7120328
:10429300E2E9FE12504C70030243B5EE6011741B49
:1042A3006E7013E0C81243B86405700302438012B2
:1042B3005EB2E402438474E96E70621243D4700BFD
:1042C300121938E960051243EE606279EE120CC0F0
:1042D300901A031243D1901A03603B1243F1901AD0
:1042E30003700B1243D114F0120E760243B512433E
:1042F300DCC2E71244FC1243B86403700C125AC8C0
:104303001243BE124126D2E2F079ED120CC01243E1
:10431300C41205C28075125EB574E9806474E16EDF
:10432300703E121938E960551243EE70509003B491
:10433300E0C0E0125AC82412F582E438F583D0E0D5
:10434300F09003A3E0C0E0901A031240F21240F28F
:10435300D0E0F09003A3E004F07901120E5E8052E6
:10436300741C6E7018901A031252BC901A131245E3
:10437300AA1205C2901A03E4F0A3F08035125EB2CC
:10438300EEF0901A031252BC12237C125AC8125A2E
:104393009AE0548060109003BAE0F9120D7A90030A
:1043A300B9E0F9120D6E901A03E4F0A3F07910123C
:1043B300244E024A35240D124123222411F582E4AE
:1043C30022901A031252C0901A07125EBC22E0F820
:1043D300A3E0C8241212412322E0F8A3E0C8124349
:1043E300E8124126222410F582E422901A03125A7D
:1043F300CF125A9EE054042274F41203E2750A00A9
:10440300750B00A2AFE433FFC2AF12504C6003023E
:1044130044B81245A71205C2E94410F89019FA806E
:104423000985080A85090B1244D31244E870030274
:1044330044B812363D586870E8780A1208DBAC08B5
:10444300AD097AFA7B1912104A7402120909901AFB
:1044530003E508F0A3E5091244FC1244E0405D9033
:104463001A01E014F0EFA2E092AF901A03E0240ED9
:10447300F8A3E03400F9880889098882F583125289
:10448300BC901A031244F6F9122340E99019FEF086
:10449300124504E05480901A036026125ACB241369
:1044A300124123F9120D7A125AC82414124123F926
:1044B300120D6E8018EFA2E092AF8011901A008067
:1044C300A11243DCA2E1B3E433F9120E5E022F80A2
:1044D300E50824FBF582E50934FFF5832224111254
:1044E3004123A2E7221264F7E508450922851882D1
:1044F30085198312333FA3E022F0901A03125ACF97
:1045030022A3E4F08508828509832274F71203E26B
:10451300EAFEEBFF12247EEE241012462FA2E340A4
:104523000C12462C640170059080DA80039080DBC6
:10453300E0F9EEFCEFFD7AFA7B19121050E96046C0
:10454300EEFAEFFB901A0D1245AA1205C2EE240EE5
:1045530012462F54047020A8A8C2AF901A01E00499
:104563001252B2FAE8A2E792AF124599A3E05401BE
:104573007021122388801CEEFAEFFB901A05124576
:10458300AA1205C2800D8E828F83A374F1124999FA
:1045930012237C024A3512459D22EE240EF582E455
:1045A3003FF58322901A0F125EBC22C082C0831291
:1045B300238802477B74F71203E2EAFEEBFF7900DC
:1045C300901A5EE05402700CEE243012462F54040D
:1045D300600279E8901A5EE05460700CEE243012A9
:1045E300462F5402600279E88E828F83A3A3A3A38C
:1045F300E0F89080E0E0C398500279E8EE242E12B0
:10460300462F700CEE242B12462F700479F5800B85
:10461300E9700512236AE9F9E96007EEFAEFFB1284
:104623002454024A3534FFF509EE240DF582E43FA4
:10463300F583E022C082C0838A828B83740DF012DB
:10464300192C02477BC082C0838A828B83E4F0A348
:10465300F0EA243012427C54049080DA7012E0F8BD
:10466300901A01E0C398401279F112245402477B57
:10467300E0F8901A00E0C39850EE901A59E0F9124E
:10468300102080E974F61203E2E9FE244CFAE434C4
:1046930000FB121014EA4B6012EE8A828B83A3A3F1
:1046A300A3A3F0EA244C124F9D80047A007B0002FE
:1046B3005DFCC082C083901A1574D6F0A37423F0F6
:1046C300A37406F0A37424F0A374DCF0A37423F0A2
:1046D300A374E2F0A37423F0A37400F0A37424F092
:1046E300A374F4F0A37423F0A374EEF0A37423F083
:1046F300A3740CF0A37424F0A37412F0A37424F035
:10470300A37418F0A37424F0A37424F0A37424F006
:10471300A374E8F0A37423F0A374D0F0A37423F07C
:10472300A374CAF0A37423F0901A3174FAF0A3743B
:1047330023F0A3741EF0A37424F0A3743EF0A374B7
:1047430025F0A3742AF0A37424F0A37430F0A374A7
:1047530024F0901A55E4F0901A58F0901A41124739
:10476300727402F0901A4A1247727401023E037483
:104773004EF0A37424F0A322D083D0820208BB742A
:10478300F51203E274F11209A18518828519837465
:1047930002F07401120BE1E9F060047AFF7BFF740D
:1047A30002120BE11252CC75084D75091A750A00F5
:1047B30078081208D77C0B7D007407120BE1AA82DC
:1047C300AB83120FF07403120909AA18AB1912195B
:1047D3002C740F02645774F71203E274FD1209A1DB
:1047E300851882851983740AF07401120BE1E9F0CC
:1047F3007402120BE1EA12480C12192C02397F855C
:104803001882851983EAF0A3EBF0AA18AB19227476
:10481300F61203E274F71209A1EAFEEBFF124862F3
:1048230012310F740212498AAA18AB191211ACEE95
:10483300242E1230DD24301258991208DB74021230
:10484300099979831A1AEFFB1224AE74021209092B
:10485300E9F5087007EEFAEFFB12238E025DF512FD
:10486300459D74012274F01203E2126340120B722D
:104873007808790C1202F378081208D37A447B1A69
:1048830002336274F41203E274C61209A190039214
:10489300E0640F6010851882851983742E12480C0A
:1048A30012246080277A3B7B1A122586122F8E12E0
:1048B300029A88088909E4F50AF50B78081208D3E7
:1048C3007A3B7B1A12257A7404120909743A022F6F
:1048D3007D74F51203E2EAFEEBFF8E828F83A3E081
:1048E300F86003024973EE242D12462F6402600719
:1048F300E06403600278E8EE2423F582E43FF58365
:10490300122F87400478E8806AE87064EE2423FA63
:10491300E43FFB79E1120D3EEE242EFAE43FFB79EE
:1049230050120D3EEE242D12462F6402700E125AC1
:1049330088125ABE9003A1124FA780129003A1744C
:10494300FEF0A30412498A7A987B031211B8EE246D
:1049530018123DA01208D77C0B7D007A4D7B1A12EA
:104963000FF07403120909EEFAEFFB1223C4E9F8FE
:10497300E86011E88E828F83A3125CEA74171249F0
:104983009912246002645AF0EE2425FCE43FFD22D0
:104993008E828F837429F0EEFAEFFB2274F61203F2
:1049A300E274F71209A1901A58E0703B7401F0F910
:1049B300120E28AA18AB1912249075084D75091AFE
:1049C30078081208DB75080175090078081208DBFE
:1049D3009003A712076674061209997A03790512E0
:1049E30024B47406120909025DF774F71203E2EAAC
:1049F300FEEBFF7901120E2E8E828F83E06420700E
:104A030004A374EBF0901A58E0A2E25003C2E2F060
:104A1300E0A2E15008124C371223BE800C8E828F25
:104A230083742A1249991224608007EEFAEFFB126D
:104A330024FC7F010206A774F41203E274FE120938
:104A4300A1EAFEEBFF7901120E2E7A3B7B1A1225A7
:104A5300867A447B1A122586124D81851882851920
:104A630083124DB5E0F50B700FAA18AB19795312E9
:104A73000D3E1264E7120D3E123D9D1208D77C0BCA
:104A83007D007A4D7B1A120FF07403120909851801
:104A9300828519831252BCA90B1223B8901A58E0CD
:104AA300A2E1500C7A008E828F83A3E0F91223BE19
:104AB300901A58E4F07402022F7D74F71203E2EAAD
:104AC300FEEBFF8E828F83A374EBF0901A58E0A263
:104AD300E150077A0079EB1223BEEEFAEFFB1223C3
:104AE300F4024A3574F71203E2EAFEEBFF7901128E
:104AF3000E2E7A3B7B1A1225867A447B1A12258660
:104B0300901A55E4F0901A58F07AFF7BFF8E828F4B
:104B130083A3E0F91223B8024A3574F71203E2EAD9
:104B2300FEEBFF1223EE024A2E74F71203E2EAFEB3
:104B3300EBFF7901120E2E8E828F83A3A3A3A3E032
:104B430060047400800274EB124B7E5003C2E2F0E7
:104B5300E0A2E15008124C801223BE8014A2E05060
:104B6300108E828F83742AF0A374EB124999122456
:104B730060EEFAEFFB1223A0024A358E828F83A3E5
:104B8300F0901A58E0A2E22274F61203E2EAFEEB76
:104B9300FF901A58E0D2E1F07901120E288E828F2D
:104BA30083A3E0703C122496E9FAEE240DF508E4A1
:104BB3003FF50978081208DB7508017509007808C4
:104BC3001208DB124BF5120766EE2402FCE43FFDEC
:104BD30079051224B47406120909E98E828F83A31E
:104BE300F08E828F83A3E060067A00F91223BE025F
:104BF3005DFC124BF922EE240BF582E43FF5832290
:104C030074F71203E2EAFEEBFF7901120E2E8E8295
:104C13008F83E064207004A374EBF0901A58E0A231
:104C2300E25003C2E2F0E0A2E15006124C37122335
:104C3300BE024A35C2E1F07A008E828F83A3E0F987
:104C43002274F71203E2EAFEEBFF7901120E2E7AC9
:104C53003B7B1A1225868E828F83A3A3A3A3E060D6
:104C6300047400800274EB124B7E5003C2E2F0E046
:104C7300A2E15006124C801223BE024B74C2E11211
:104C83003AE8A3E0A2E4E433FA8E828F83A3E0F947
:104C93002274F71203E2EAFEEBFF7901120E2E8E65
:104CA300828F83A374EB124B835003C2E2F0E0A222
:104CB300E15006124C371223BE024A3574F7120331
:104CC300E2EAFEEBFF7A3B7B1A122586EEFAEFFB54
:104CD300122418024A2E74F71203E2EAFEEBFF7A5B
:104CE3003B7B1A122586EEFAEFFB122418024A3593
:104CF30074F71203E274EF1209A1EAFEEBFF125AF2
:104D0300927A987B031211A6E9606285188285194D
:104D1300837409F07401120BE174EFF0124D81F802
:104D23007402120BE1E8124DB5A3A3E0C0E07404D2
:104D3300120BE1D0E0124DA2640870158E828F83AE
:104D4300A3A3124D75E0C0E07405120BE1D0E0801F
:104D5300067405120BE1E4125AF17406120BE1AA70
:104D630082AB831224C6AA18AB1912192C74110230
:104D73003981125ACF2407F582E438F58322124D84
:104D830097FB8A828B83125AC288828983E0FCA3B1
:104D9300E0F9EC22EE2402F8E43FF9E8FAE9221202
:104DA3004DA622124DABE022F08E828F83A3A3A3E4
:104DB300A322F0A3E9125AE0124DBF22E0F8A31296
:104DC3005EC3A3A322C082C08312250802477BC00F
:104DD30082C083901A757415F0A3741AF0A374310A
:104DE300F0A3741AF0901BAE74BCF0A3742BF0A361
:104DF3007480F0A3742CF0901A6174B2F0A374233E
:104E0300F0901A5EE04401023E03C082C083EAFCD4
:104E1300EBFD790212246C02477BC082C0837906C2
:104E2300025F8D74F61203E274FE1209A1901A5AFE
:104E330012504F60077A5A7B1A122484901A60E446
:104E4300F090166512504F60268007AA18AB19120E
:104E53002484901A59E0F912102C8A088B09A808A7
:104E6300A909851882851983124FA7E84970DC7454
:104E730002025DF974F71203E2E9FA7B00901A5912
:104E8300E0F9121056024A3574F71203E274F01275
:104E930009A1EAFCEBFDE9FE8C828D83E0F8740640
:104EA300124F98342FF583E493C0E07401120BE1A1
:104EB300D0E0F0640B700DEE8C828D83A3F012248E
:104EC300EA024F8BE07003024F8B640C6003024FC6
:104ED3007C741A6E700B7404120BE1E4F0A3024F9E
:104EE3007B7404120BE1ECF0A3EDF0EC242F124FD2
:104EF30090C0E07403120BE1D0E0126053120B9ADE
:104F03007406120BE1120B8E8C828D83125AB574C8
:104F13000A120BE1124FA7EC240E124F90541060AB
:104F230009851882851983E48013EC2412124F90AB
:104F3300F89003B4E0C398851882851983F0E0C024
:104F4300E0740C120BE1D0E0F0EC2415124F90C08A
:104F5300E0740D120BE1D0E0F0EC2416124F90C078
:104F6300E0740E120BE1D0E0F0EC2417124F90C066
:104F7300E0740F120BE1D0E0F07402120BE1EEF0DB
:104F8300740112099112192C7410023981F582E40B
:104F93003DF583E02228F582E422F8E43BF98A8296
:104FA3008B83A3A3E8F0A3E9F022C082C083901A05
:104FB30060E06403700479018002790002477B7426
:104FC300F71203E2901A60E012503912691E8A82C6
:104FD3008B83E0C2E7F025E0F8EC124F983DF583B0
:104FE300A3E493FE125039F58312504F6005EE90FF
:104FF3001A60F08A828B83E0125045EC28F582ED2B
:1050030039F583E493FCC4540F25E0F8746F124F11
:1050130098341AF58312504F70051224D88014EC7B
:10502300540F25E0FCE82CF582E439F5831245AAF8
:105033001205C2024A3512504574AC28F582741B1E
:10504300392225E0F8E433F922901A03125AC2E810
:10505300492274F11203E274FE1209A1890AEAFEDD
:10506300EBFF125151FA7B001210148A088B09EAE4
:10507300450960388A828B83E50AF0A3E4F08E0C3D
:105083008F0DF50E780C1208D7A80A12515EEA2488
:1050930002FAE43509FB120FF07403120909AA0896
:1050A300AB09901A59E0F9121020801285188285F5
:1050B3001983E50AF0791AAA18AB19122454740259
:1050C3001209090231ED74F21203E274FE1209A10E
:1050D300890B8A088B09125151F50AFA7B001210C9
:1050E300148A0C8B0DAE0CAF0DEE4F604A8E828F7F
:1050F30083E50BF0A3E4F0A80AEE28F8E43FF98E69
:10510300828F83124FA58E828F83A3A3A3A3E4F080
:10511300F50A78081208D7A80B12515E123500124F
:105123000FF07403120909EEFAEFFB901A59E0F934
:1051330012102079008014851882851983E50BF0FD
:10514300791AAA18AB19122454791A023A1374CF94
:1051530029F582E4342EF583E4932274E528F5825D
:10516300E4342EF583E493FC7D0022C082C083E9FE
:10517300901A59023E0374F61203E274FE1209A157
:10518300EAFEEBFFEE542070378040A8A8C2AF9030
:105193001A02E0141252B2F508E8A2E792AF8A822B
:1051A3008B831252A9901A5C1252CC122460851878
:1051B30082851983E0641560077A5C7B1A12248464
:1051C3007AFC7B1912103EEA4B70C0EF54807012C8
:1051D300801C901A5C1252CC1224607A5C7B1A12E7
:1051E3002484901A59E0F912102CEA4B70E4EE541F
:1051F30010600E851882851983742D12480C1224B1
:1052030060EEA2E0500E851882851983742412483B
:105213000C122460EE5402600E8518828519837483
:105223002512480C122460EE5404600E8518828502
:105233001983742612480C122460EE5408600E85FC
:105243001882851983742812480C122460EE544086
:1052530060107401120BE11262B4742C12480C1228
:105263002460EE548060107401120BE11262B47476
:105273002F12480C122460901A5A12504F6020A823
:10528300A8C2AF901A5A1252BC901A5AE4F0A31251
:1052930052D21252CB1224607A5C7B1A1224847A83
:1052A300007B00024E72E0851882851983F022F09C
:1052B300E8A2E7E433229019E11252C022E0FAA3F4
:1052C300E0FB22A3A3A3A3A3A3EAF0A3EBF0221280
:1052D30052B2FEE8A2E792AF22C082C083901A5C6A
:1052E300125ABEEA687002EB697007901A5CE4F028
:1052F300A3F002477B74F71203E2EAFEEBFFEE4FE3
:1053030070031225B0A2AFE433F508C2AF8E828FCB
:105313008312504F6028E824FBFAE934FFFB901A0C
:105323005C126920E86C7002E96D7007901A5CE406
:10533300F0A3F08E828F83E4F0A3F01210C802373B
:10534300D2C082C083901A8374CCF0A37424F0A3D8
:1053530074DEF0A37424F0A374E4F0A37424F0A324
:10536300749AF0A37423F0A374EAF0A37424F0A353
:105373007494F0A37423F0A374A0F0A37423F090A7
:105383001A91741AF0A37425F0A374F0F0A3742493
:10539300F0A374F6F0A37424F0A37402F0A37425AD
:1053A300F0A374FCF0A37424F0901A82023E02C0AE
:1053B30082C0839003A1E064FE7003A3E0F470094C
:1053C3007C987D031211AC80158A828B83A3A3A3DF
:1053D300A3A3A3A3A37402F0125534124FA7024749
:1053E3007BC082C0839003ABC3E094FEA3E094FF31
:1053F300400479038002790202477BC082C0831292
:10540300553F8C828D831254F4687039740268702E
:105413001C8A828B8312544DE06870298A828B83A5
:10542300A312544DA3E068701C7901801A740368B9
:105433007013EC2405FC50010DEA2405FA50010B0E
:105443001211B28002790002477BA3A3A3A3A3E0B6
:10545300F88C828D83A3A3A3A3A32274F61203E281
:105463007E00740A120BE1E01254E8FF8A828B83F8
:10547300A3A3A3A3A3A3A3A3E06F706474026F7099
:105483004E8A828B83C082C08388828983A3A3A32D
:10549300A3A3E0F50888828983A3A3A3A3A3A3E01E
:1054A300FBAA08D083D082E06A7003A3E06B70305C
:1054B30088828983A3A3A3E0FA88828983A3A3A311
:1054C300A3E0F9EA6C7002E96D70157E0180117436
:1054D300036F700CE82405FCE439FD1211B2E9FEF8
:1054E300EEF9025DFCF8A3E0F9888289831254F493
:1054F30022A3E01313543F540322C082C0838A8241
:105503008B83A3A3A3A3A3A3A3A3E0640270141296
:105513005534E0687003A3E06970047901800F7962
:1055230000800BEAFCEBFD7A987B031211A602477D
:105533007B9003A1125AC28A828B83228A828B8335
:105543001254F4F82274EC1203E2EAFEEBFF8C121D
:105553008D13750A008C828D83A3A3A3A3A3A3A396
:10556300A3E0F510E9A2E75008750CFF750DFF8065
:10557300069003A7125784E9C2E7F511EE240E1231
:10558300462F54206007125765740880041257652C
:10559300E412578C5404600712576D74808005120F
:1055A300576D741012578C5410600612573DE480E7
:1055B3000B9003B4E0C0E012573DD0E012578CA229
:1055C300E05003750A20540860067410450AF50A72
:1055D3008E828F83A3A3E024FFF508A3E01246285D
:1055E300C39402E0400B640B6005E01412351074A1
:1055F30003450AF50A750B009003C7E064017011B7
:105603008E828F83A3A3A3A3E0C394674003750B88
:105613001085110E750F00740E780E120A6EE50FC9
:10562300450BF50B7414120BE1E0F50EA3E0F50F37
:1056330074026511700E9003AC12350F9003AB1218
:10564300577B80137403651170121257477CBB7D1F
:1056530003AA08FB1211B81257548004E5116028FD
:10566300E5106014E50E650C7004E50F650D700818
:105673007440450AF50A8010850882850983E50D83
:10568300125792E50C12351685100C750D00740A2D
:10569300780C120A6EE50D450BF50B74026510705C
:1056A30015851282851383A312350F851282851304
:1056B3008312577B8013740365107012125747AC23
:1056C30012AD13AA08FB1211B81257548004E51047
:1056D3006010850882850983E50F125792E50E1243
:1056E3003516A808A909E824FFF508E91246287029
:1056F3000590039780039003A3E0FA04F0EA8882FD
:105703008983124506E50B125792E50AF0EE24044D
:10571300F8E43FF91231FCAC088A828B83E0F50A86
:1057230088828983E0250AC39C125ADCECF0A3E546
:1057330009125C58E4F0F9022F61EE2412F582E4B9
:105743003FF58322E50824F9F508E50934FFF50957
:105753002212575822E50824FFF508E50934FFF51E
:105763000922EE1243E83FF5832212577122EE24F9
:1057730011F582E43FF58322E0850882850983F0F1
:1057830022E0F50CA3E0F50D22F012459DE0221274
:10579300351A850882F5832274EE1203E2890A8A98
:1057A3000B8C108D11750C1A7416120BE11264F325
:1057B300AA08FB12233A8A0E8B0FAE0EAF0FEE4FE1
:1057C30060607414120BE112582CE8F0A3E9123153
:1057D30012E50AF085080C85090D750E00780C1288
:1057E30008D71234FC120FF0740312090974121251
:1057F3000BE1120766AC10AD11A90BEEFAEFFB1229
:1058030024AE7402120909E9F50C7016E50A24F9AD
:105813006003147006123583D2E5F0EEFAEFFB1243
:10582300238EA90C7F0A0206A7125ED112459E227F
:1058330074F61203E274F71209A1EAFEEBFF780192
:10584300EE242F12462F60027805124599E8123193
:105853000F740412588C1211ACEE242C1230DD2478
:105863002E1258991208DB740212099979031A1A35
:10587300EFFB1224AE7402120909E9F5087007EE72
:10588300FAEFFB12238E025DF5F0EE2423FCE43FD6
:10589300FDAA18AB1922F582E43FF58312322712D1
:1058A3004DA604F078082274F21203E28A088B09E9
:1058B300ECFEEDFF8A828B837405F0EE24321246F0
:1058C3002F8A828B83A3A3F0EA2403F50AE4350924
:1058D300F50B850A82F583125784125A88120B9AA4
:1058E300E50C1243BE350DF583120B8E125A92AAA4
:1058F3000CAB0D1211AC850A82850B83125EC9FABB
:10590300A3E0FB88828983A3A3A31252C6EE242FAC
:1059130012462FC0E0125AA7D0E0125AE62415F51A
:1059230082E438F583E4125AE6125A9AE4125AF1E1
:10593300850A82850B83E02416FAA3E03400FB1268
:1059430024C68E828F83A3A3A3A3A3A3A3E0C0E053
:10595300850A82850B83125ACB240DF582E438F530
:1059630083D0E0125AD5FAA3E0FB850A82850B8324
:10597300125ABEE8240BFCE439FD8A828B83E08C47
:10598300828D83F0A3E4125AFEE0F50B8C828D83A3
:10599300A3E0450B125ADCA3E0FCA30A0AAB83A2E3
:1059A300E7E433C0E0E8240FF582E439F583D0E07F
:1059B300F074075C600478018002780075F003746A
:1059C300075CA428F8EA28FAE43BFBE5082405F879
:1059D300E43509F98A828B83123227125AFE85082D
:1059E300828509831252C688828983E0F50A5407A7
:1059F30025E0FCE50AC4540F5407F50A750B00743F
:105A030003780A120A6EEC250AF8EA28F8E43BF94F
:105A1300850882850983A3A3A3A3A3A3A3A3A3E8C0
:105A2300F0A3E9124DA2FA8E828F83A3A3E02AFA90
:105A3300A3E03400FBC3EA98EB9940308E828F8356
:105A4300A3A3E0F8850882850983A3A3A3A3A3A343
:105A5300A3A3A3E0FA8E828F83A3A3A3A3E0C39A95
:105A630028850882850983A3A3A3801085088285DE
:105A73000983A3A3A3A3A3A3A3124504A3A3A3A33B
:105A8300A3F0023A18EE2425F582E43FF58322EED3
:105A93002413FCE43FFD22125A9E22240EF582E4D5
:105AA30038F58322125AAB22E82410F582E439F543
:105AB3008322A3A3A3A3A3A3A3A3A3125AC222E053
:105AC300F8A3E0F922901A03125ACF22E0F8A3E0D8
:105AD300C822125CEAA3A3E022125AE022F08A82CF
:105AE3008B8322F0850A82850B83125ACF22F01210
:105AF3005AF622EE2408FCE43FFD22125AE0A3AA40
:105B030082AB832274F51203E28C088D09750A00B7
:105B130078081208D77C0B7D000264520208BBC0D0
:105B230082C083791812245402477BC082C0838ABF
